:100000000C9460060C9491060C9491060C94910645
:100010000C9491060C9491060C9491060C94910604
:100020000C9491060C9491060C9491060C949106F4
:100030000C9491060C9491060C9491060C949106E4
:100040000C9491060C9491060C9491060C949106D4
:100050000C9491060C9491060C9491060C945A57AA
:100060000C9491060C9424570C94FA560C94910617
:100070000C9491060C9491060C9491060C949106A4
:100080000C9491060C9491060C9491060C94910694
:100090000C9491060C9491060C9491060C94A45720
:1000A0000C9491060C9491060C9491060C94910674
:1000B0000C9491060C9491060C9491060C94910664
:1000C0000C9491060C9491060C9491060C94910654
:1000D0000C9491060C9491060C9491060C94910644
:1000E0000C9491060C94A33B0C9499060C946039E3
:1000F0000C94D53C0C944B080C94793B0C940E2436
:100100000C9447080C94CD400C9451400C94AB29AE
:100110000C94B8390C9411260C9412260C942A07CE
:100120000C942C080C94B6060C9494060C94E72CB2
:100130000C9451080C9430080C94AE290C94340F94
:100140000C945A3B0C94BA360C94B2060C94590891
:100150000C9499340C947E390C94AF070C949B2921
:100160000C94BB0B0C9428240C94FF230C9455087E
:100170000C9433080C9443080C949F290C94F84079
:100180000C9466140C94CC060C94803A0C94FF3BAF
:100190000C94A02E0C948A260C9491260C945F1734
:1001A0000C9428080C9421240C9424080C94753980
:1001B0000C9476260C945F080C9408070C94C63FA8
:1001C0000C945E080C941E080C94A9290C948B685E
:1001D0000C94533F0C9439080C94FB250C943B264B
:1001E0000C942E370C9455240C9433410C94D33634
:1001F0000C9450380C94F5360C9495060C947A2691
:100200000C9462070C94F9060C94193C0C941D266E
:100210000C94A8340C941C070C948E100C94781435
:100220000C9472260C9493060C942F5A0C94630829
:100230000C943D0800407A10F35A00A0724E180941
:100240000010A5D4E80000E87648170000E40B543D
:10025000020000CA9A3B000000E1F505000080960C
:100260009800000040420F000000A086010000003E
:10027000102700000000E8030000000064000000F8
:1002800000000A00000000000100000000002C76C1
:10029000D888DC674F0823DFC1DFAE59E1B1B796DC
:1002A000E5E3E453C63AE651997696E8E6C2842639
:1002B000EB898C9B62ED407C6FFCEFBC9C9F40F215
:1002C000BAA56FA5F490055A2AF75C936B6CF96791
:1002D0006DC11BFCE0E40D47FEF520E6B500D0ED56
:1002E000902E0300943577050080841E08000020BE
:1002F0004E0A000000C80C333333330F986E12835C
:100300001141EF8D2114893BE65516CFFEE6DB182F
:10031000D1844B381BF77C1D901DA4BBE4242032F4
:1003200084725E228100C9F124ECA1E53D27110011
:100330007F78B103053C3CB203053C3CB306053C69
:100340003C053C3CB40103C003280804C101C0C201
:10035000020D00C3028D2AC4028DEEC5011AE01001
:100360000322070A2E30252A28262E3A00010313DD
:10037000E1100416060D2D26232727252D3B00010D
:1003800004133A01057F96290011007F14D003075A
:100390004218D103000710D2020102C005103B0031
:1003A0000211C50103C80C003236450616377577B1
:1003B000540C0036010A3A01552A040000013F2B73
:1003C00004000001E07F782900F704A9512C82C0C5
:1003D000021109C10141C503000A80B102B011B484
:1003E0000102B6020222B701C6BE020004E9010002
:1003F0003601083A0155E00F00071009170B418933
:100400004B0A0C0E181B0FE10F00171A040E062FD3
:100410004543020A0932360F11007F782900F106A0
:100420003604003C0F8FF20918A31202B212FF101B
:1004300000F8022104F9020008360108B40100C1E5
:100440000141C50400918000E00F0F1F1C0C0F0834
:100450004898370A1304110D00E10F0F322E0B0DCF
:10046000054775370610032420003A015511003660
:1004700001287F7829002E018929018F2B0102E2B2
:100480000100E40101E50110E60101E70110E801C6
:1004900070F20100EA0100EB0120EC013CED01C823
:1004A000E90138F101011B011A1A0101240161253A
:1004B000015C2301881801361901011F01887F059D
:1004C0001F01807F051F01907F051F01D47F051745
:1004D00001053601002801387F2828013C0201006F
:1004E0000301000401000501EF06010007010008F7
:1004F000010109013F0100B903FF83577FFAB304EB
:1005000000000606B60125B00168CC0105B1060061
:10051000151C1C83AAC0065050013C1E08B40702DB
:1005200040002A2A0D783A01553601C035010044B1
:1005300002000211007F9629007F3201007F3228DD
:1005400000F603010100CF03008130ED04640312C3
:1005500081E803851078CB05392C003402F701209F
:10056000EA020000B00100B40100C00121C1011184
:10057000C5023F3CC701B53601883A0155B10200BA
:100580001B360148F20100260101E00F0F26240B63
:100590000E0954A8460C17090F0700E10F00191B9C
:1005A0000410072A473903060630380FB701071130
:1005B000007F96290000000100FFFF3200010000CB
:1005C00001020000070300301004000000080002D0
:1005D00002090000000A0000000C0000000D0000ED
:1005E000000F0000001000000011000700120000C2
:1005F0000013000000FFFFC8001000901611002734
:1006000002FFFF320012001A00FFFF320013000049
:100610001829002A00FFFF320030000000310000DE
:1006200000320000003500060236000808370007D7
:100630000038000102390000003C0000003D0000CD
:10064000002000000021000000500000005100EFD9
:10065000005200000053003F01600000A76100034A
:10066000006A000000900010009200000093000358
:10067000009500001197000000980000000700336B
:1006800001005EBCE2613FDD83C29C7E20A3FD1FB2
:1006900041009D23BE46DB65F88C11AF32CA57E995
:1006A0007400002100240027002A002D00300033B0
:1006B0000001010000040107010A0100000A0B0209
:1006C000090C0D0E080703040100000000000000E3
:1006D000000000000000000000000000000000001A
:1006E00000000000000000121110000000000000D7
:1006F00000000000000000000000000000000000FA
:100700000000000000003E5B4F5B3E3E6B4F6B3EC7
:100710001C3E7C3E1C183C7E3C181C577D571C1C04
:100720005E7F5E1C00183C1800FFE7C3E7FF00185F
:10073000241800FFE7DBE7FF30483A060E26297948
:100740002926407F050507407F05253F5A3CE73CA9
:100750005A7F3E1C1C08081C1C3E7F14227F22145A
:100760005F5F005F5F06097F017F006689956A60B1
:100770006060606094A2FFA29408047E04081020C8
:100780007E201008082A1C08081C2A08081E1010C1
:1007900010100C1E0C1E0C30383E3830060E3E0E6B
:1007A00006000000000000005F00000007000700D6
:1007B000147F147F14242A7F2A12231308646236BC
:1007C000495620500008070300001C224100004148
:1007D000221C002A1C7F1C2A08083E080800807082
:1007E00030000808080808000060600020100804B5
:1007F000023E5149453E00427F4000724949494608
:100800002141494D331814127F1027454545393C85
:100810004A49493141211109073649494936464972
:1008200049291E0000140000004034000000081494
:10083000224114141414140041221408020159090D
:10084000063E415D594E7C1211127C7F4949493662
:100850003E414141227F4141413E7F494949417FDB
:10086000090909013E414151737F0808087F004191
:100870007F41002040413F017F081422417F4040DA
:1008800040407F021C027F7F0408107F3E414141AF
:100890003E7F090909063E4151215E7F091929461B
:1008A000264949493203017F01033F4040403F1F31
:1008B0002040201F3F4038403F6314081463030466
:1008C0007804036159494D43007F414141020408C6
:1008D0001020004141417F04020102044040404099
:1008E00040000307080020545478407F28444438CF
:1008F0003844444428384444287F38545454180019
:10090000087E090218A4A49C787F08040478004497
:100910007D40002040403D007F1028440000417F82
:1009200040007C047804787C08040478384444440B
:1009300038FC1824241818242418FC7C0804040803
:10094000485454542404043F44243C4040207C1C1C
:100950002040201C3C4030403C44281028444C900F
:1009600090907C4464544C44000836410000007769
:100970000000004136080002010204023C26232642
:100980003C1EA1A161123A4040207A385454555976
:1009900021555579412154547841215554784020AE
:1009A000545579400C1E52721239555555593954C7
:1009B00054545939555454580000457C410002455F
:1009C0007D420001457C40F0292429F0F0282528AB
:1009D000F07C545545002054547C547C0A097F49CE
:1009E00032494949323248484832324A4848303A16
:1009F0004141217A3A42402078009DA0A07D3944AF
:100A00004444393D4040403D3C24FF2424487E4935
:100A100043662B2FFC2F2BFF0929F620C0887E0967
:100A20000320545479410000447D413048484A3203
:100A3000384040227A007A0A0A727D0D19317D26EB
:100A400029292F28262929292630484D40203808D1
:100A500008080808080808382F10C8ACBA2F102852
:100A600034FA00007B000008142A142222142A14ED
:100A700008AA005500AAAA55AA55AA000000FF001E
:100A8000101010FF00141414FF001010FF00FF10CE
:100A900010F010F0141414FC001414F700FF000000
:100AA000FF00FF1414F404FC141417101F10101F7F
:100AB000101F1414141F00101010F0000000001F6D
:100AC000101010101F10101010F010000000FF1078
:100AD0001010101010101010FF10000000FF140074
:100AE00000FF00FF00001F10170000FC04F41414A6
:100AF0001710171414F404F40000FF00F714141472
:100B000014141414F700F7141414171410101F10F1
:100B10001F141414F4141010F010F000001F101F14
:100B20000000001F14000000FC140000F010F01082
:100B300010FF10FF141414FF141010101F000000F9
:100B400000F010FFFFFFFFFFF0F0F0F0F0FFFFFFFD
:100B50000000000000FFFF0F0F0F0F0F3844443854
:100B6000447C2A2A3E147E02020606027E027E028F
:100B700063554941633844443C04407E201E2006AE
:100B8000027E020299A5E7A5991C2A492A1C4C72EB
:100B900001724C304A4D4D303048784830BC625A72
:100BA000463D3E494949007E0101017E2A2A2A2A02
:100BB0002A44445F444440514A444040444A5140DE
:100BC0000000FF0103E080FF000008086B6B08369F
:100BD00012362436060F090F060000181800000010
:100BE0001010003040FF0101001F01011E00191DFF
:100BF0001712003C3C3C3C000000000000002000BC
:100C00002300260029002C002F00320000010000E4
:100C100003010601090101021020200808102040EC
:100C200010204080020102010804020101020408B0
:100C3000102040808040201008040201800402013E
:100C40008040201008040201080402010102040887
:100C50001020408001020408102040800000220083
:100C6000250028002B002E00310034000201000076
:100C7000050108010B010505050507050808080819
:100C8000020202020A0A0808040404040101010124
:100C9000010101010303030303030303040707071F
:100CA0000C0C0C0C0C0C0C0C0202020206060606C4
:100CB000060606060B0B0B0B0B0B0B0B2F5A8B6848
:100CC00011241FBECFEFD1E2DEBFCDBF00E00CBFCD
:100CD00016E0A0E0B2E0EAE0F3EE00E00BBF02C0F5
:100CE00007900D92AE38B107D9F72BE0AEE8B6E029
:100CF00001C01D92A735B207E1F716E0CFE5D6E0B7
:100D000000E006C021970109802FFE010E94356F87
:100D1000CE35D10780E00807A9F70E94705D0C94DA
:100D200073710C94000008950895FC0182899389E1
:100D30000895FC018489958908958CBD9DBD089511
:100D400020E3FC0120833296862F82958F706F708E
:100D50006A3030F4605D6293682F8111F5CF089599
:100D6000695CF9CFFC01818D928D08950895DC01B5
:100D7000ED91FC910190F081E02D1994DB01149626
:100D80004D915C9115976D917C91DC01ED91FC91F9
:100D90000280F381E02D1994AF92BF92CF92DF923F
:100DA000EF92FF920F931F93CF93DF936C017B0120
:100DB0008B01040F151FEB015E01AE18BF08C017B1
:100DC000D10759F06991D601ED91FC910190F08124
:100DD000E02DC6011995892B79F7C501DF91CF91D7
:100DE0001F910F91FF90EF90DF90CF90BF90AF9049
:100DF0000895FC01538D448D252F30E0842F90E021
:100E0000821B930B541710F0CF9608950197089505
:100E1000FC01918D828D981761F0A28DAE0FBF2FCE
:100E2000B11D5D968C91928D9F5F9F73928F90E024
:100E300008958FEF9FEF0895FC01918D828D981793
:100E400031F0828DE80FF11D858D90E008958FEFD0
:100E50009FEF0895FC01918D228D892F90E0805C99
:100E60009F4F821B91098F739927089582ED98E017
:100E70000E942A0721E0892B09F420E0822F08959F
:100E8000FC01A48DA80FB92FB11DA35ABF4F2C91FF
:100E9000848D90E001968F739927848FA689B789F6
:100EA0002C93A089B1898C91837080648C93938DED
:100EB000848D981306C00288F389E02D80818F7D90
:100EC00080830895EF92FF920F931F93CF93DF9348
:100ED000EC0181E0888F9B8D8C8D98131AC0E88976
:100EE000F989808185FF15C09FB7F894EE89FF8945
:100EF0006083E889F98980818370806480839FBFE3
:100F000081E090E0DF91CF911F910F91FF90EF90E2
:100F10000895F62E0B8D10E00F5F1F4F0F731127F2
:100F2000E02E8C8D8E110CC00FB607FCFACFE8892D
:100F3000F989808185FFF5CFCE010E944007F1CF6E
:100F4000EB8DEC0FFD2FF11DE35AFF4FF0829FB7A1
:100F5000F8940B8FEA89FB8980818062CFCFCF9391
:100F6000DF93EC01888D8823B9F0AA89BB89E889D1
:100F7000F9898C9185FD03C0808186FD0DC00FB677
:100F800007FCF7CF8C9185FFF2CF808185FFEDCFF5
:100F9000CE010E944007E9CFDF91CF91089580E014
:100FA00090E0892B29F00E94360781110E940000F1
:100FB00080E090E0892B49F080E090E0892B29F0D7
:100FC0000E94000081110E94000080E090E0892BC7
:100FD00049F080E090E0892B29F00E940000811107
:100FE0000E94000080E090E0892B49F080E090E0D2
:100FF000892B29F00E94000081110C9400000895B3
:101000008150823108F05AC0E82FF0E08827E45F71
:10101000F74F8F4F0C94356F2C0830081E082408AA
:1010200028085E08330839083D08430847084B087C
:10103000510855085E0859085F08630880918000D0
:101040008F77809380000895809180008F7DF9CF05
:1010500080918000877FF5CF84B58F7784BD089518
:1010600084B58F7DFBCF8091B0008F778093B000E7
:1010700008958091B0008F7DF9CF809190008F7797
:10108000809390000895809190008F7DF9CF80919A
:101090009000877FF5CF8091A0008F778093A0008C
:1010A00008958091A0008F7DF9CF8091A000877F67
:1010B000F5CF809120018F77809320010895809152
:1010C00020018F7DF9CF80912001877FF5CFCF93CD
:1010D000DF93282F30E0F901E554F94F8491F901AD
:1010E000EA5EF34FD491F901EA58F34FC491CC234F
:1010F000A1F081110E940008EC2FF0E0EE0FFF1F1D
:10110000E450F44FA591B491EC91ED2381E090E08F
:1011100009F480E0DF91CF91089580E090E0FACF6C
:101120001F93CF93DF93282F30E0F901E554F94F57
:101130008491F901EA5EF34FD491F901EA58F34F33
:10114000C491CC23A9F0162F81110E940008EC2F26
:10115000F0E0EE0FFF1FE45AF34FA591B4918FB763
:10116000F894EC91111108C0D095DE23DC938FBF69
:10117000DF91CF911F910895DE2BF8CFCF93DF93AE
:1011800090E0FC01EA5EF34F24918A58934FFC01F2
:1011900084918823C9F090E0880F991FFC01EF55D6
:1011A000F94FA591B491FC01E45AF34FC591D49144
:1011B00061110DC09FB7F8948C91209582238C9378
:1011C0008881282328839FBFDF91CF9108956230C3
:1011D00051F49FB7F8943C91822F809583238C9390
:1011E000E8812E2BEFCF8FB7F894EC912E2B2C9318
:1011F0008FBFEACF863308F0865320917B00982F6B
:101200009870277F922B90937B00877080648093E7
:101210007C0080917A00806480937A0080917A00CB
:1012200086FDFCCF809178009091790008953FB7BA
:10123000F8948091490790914A07A0914B07B0918B
:101240004C0726B5A89B05C02F3F19F00196A11D9C
:10125000B11D3FBFBA2FA92F982F8827BC01CD0100
:10126000620F711D811D911D42E0660F771F881F5F
:10127000991F4A95D1F708952FB7F89460914507C3
:101280007091460780914707909148072FBF0895B6
:101290008F929F92AF92BF92CF92DF92EF92FF9286
:1012A0000F931F9380911C0B82FD18C085FD16C003
:1012B000E0912F0BF091300B20813091310B81FBAD
:1012C000992790F983FB882780F98927922F932308
:1012D00021E009F020E0822780932D0B0E943C0939
:1012E000AB01BC0190912D0B20912E0B80911B0B1B
:1012F000992309F4A5C02111A3C080FD7FC081609E
:1013000080931B0B4093290B50932A0B60932B0B5C
:1013100070932C0B80912E0B882389F1992379F1FE
:101320000091200B1091210B30E020E0C090290BA0
:10133000D0902A0BE0902B0BF0902C0B4A015B0114
:101340008C189D08AE08BF0875016401C016D1064F
:10135000E206F306A0F080911B0B81FD10C02091E6
:10136000260B2093280B8A648F7780931B0B409366
:10137000290B50932A0B60932B0B70932C0B00912D
:10138000290B10912A0B20912B0B30912C0B401B19
:10139000510B620B730B0091220B1091230B30E069
:1013A00020E0401751076207730778F08091260B01
:1013B000882359F0911109C08093270B1092260BB6
:1013C00080911B0B846080931B0B80911C0B86FF0C
:1013D0000AC01092270B90911B0B9B7F90931B0BC5
:1013E0008F7B80931C0B1F910F91FF90EF90DF90EC
:1013F000CF90BF90AF909F908F9008950091290B50
:1014000010912A0B20912B0B30912C0B6A017B0140
:10141000C01AD10AE20AF30A00911E0B10911F0BA9
:1014200030E020E0C016D106E206F30608F4A7CFAC
:1014300021E020932E0B8062806880931B0B6ACF83
:101440008E7F80931B0B911165CF222309F497CFD8
:1014500010922E0B81FD05C08091260B8F5F80932B
:10146000260B80911B0B8D7F806180931B0B40931B
:10147000290B50932A0B60932B0B70932C0B86FF38
:1014800007C01092270B1092260B8F7B80931B0BAB
:1014900080911B0B87FF73CF8F7780931B0B8091FD
:1014A0001C0B816080931C0B35CFDC0180E0615008
:1014B00090F09D919827E92FEF70F0E0EF57F94FEA
:1014C0002491E92FE295EF70F0E0EF56F94FE491A7
:1014D000822F8E27ECCF0895DC012C911196ED918F
:1014E000FC91F8948181822B81839281322F3095F7
:1014F0009323928387E090E00197F1F78181832322
:10150000818383E290E00197F1F790817894EFEC8A
:10151000F0E03197F1F7922381E009F480E008953B
:10152000FC0190810180F281E02D292F209560FF40
:1015300014C0F8948281822382838181892B8183E4
:10154000A3E2B0E01197F1F78281982B928378940F
:1015500087ED90E00197F1F70895F8948281822356
:1015600082838181892B8183AFEFB0E01197F1F7FE
:101570008281982B928378948FE090E0EBCFDF927A
:10158000EF92FF920F931F93CF93DF93EC01D62E30
:10159000E42E08E010E0FF24F39461E08D2D8F210C
:1015A00009F460E0CE010E94900AFF0C015011097D
:1015B000A1F7E11010C0F894E981FA819181888146
:1015C000809589238183E981FA8192818881809540
:1015D000892382837894DF91CF911F910F91FF909F
:1015E000EF90DF900895EF92FF920F931F93CF93A8
:1015F000DF938C017B0140E065E50E94BF0AE701B3
:1016000088E0E80EF11C699140E0C8010E94BF0A21
:10161000CE15DF05C1F7DF91CF911F910F91FF909C
:10162000EF900895FC0190810180F281E02DF89403
:101630008181292F20958223818378943DE743E09F
:1016400050E0315029F1DA011197F1F780818923B7
:10165000C1F3F8948281822382838181892B8183E3
:101660007894ABE7B7E01197F1F7F8948181822382
:101670008183A3E1B1E01197F1F78081982381E0A4
:1016800009F080E07894E3E6F6E03197F1F7089509
:1016900080E008954F925F926F927F928F929F9217
:1016A000AF92BF92CF92DF92EF92FF920F931F9370
:1016B000CF93DF938C017B01EA01FC018185928548
:1016C0000E94120B8823D9F1B701F8018185928518
:1016D0000E94F30A40E06EEBF801818592850E943A
:1016E000BF0A6E015E01F9E0AF0EB11C7E01F80188
:1016F0008184928488E0682E712C512C4424439478
:10170000C4010E946C0A81115428440CF1E06F1A44
:101710007108B1F7F70151927F01AE16BF0639F794
:10172000F801818592850E94120B813041F4F60107
:1017300081916F01811105C0EE15FF05C1F790E0A1
:1017400008C068E0CE010E94550A91E02885281360
:10175000F6CF892FDF91CF911F910F91FF90EF90DE
:10176000DF90CF90BF90AF909F908F907F906F90C1
:101770005F904F9008954F925F926F927F928F92F9
:101780009F92AF92BF92CF92DF92EF92FF920F9310
:101790001F93CF93DF93EC015A01270137FF05C058
:1017A000620F731F3195219531097B01E20EF31E03
:1017B0006B0177FF02C0D12CC12CE881F98106842E
:1017C000F785E02DCE0119958E159F0544F4E8812B
:1017D000F9810684F785E02DCE0119957C0147013A
:1017E0008C189D0817FF05C0A00EB11E119501951C
:1017F00011090A0D1B1DB7FE02C0B12CA12CE881F6
:10180000F9810484F585E02DCE01199580179107A3
:1018100044F4E881F9810484F585E02DCE01199521
:101820008C0138016A187B08015011099701215079
:101830003109E881F9810680F781E02DA501B60123
:10184000CE011995EEA5FFA580819AAD89238083ED
:10185000888D998D892B49F5E8A9F9A980819BADDF
:10186000892380838091020187788093020180918F
:101870000201809302018EB1877C8EB98EB18EB940
:10188000A59884B384BBEAA9FBA980819CAD892378
:101890008083EAA9FBA9808198AD892B8083E8A980
:1018A000F9A980819FA9892B8083E8A9F9A9808162
:1018B0009BAD892380838091020187788093020108
:1018C0004091020128A139A1C90113E0969587959D
:1018D0001A95E1F788712295220F2076822B842BAE
:1018E000809302018EB1877C8EB99EB128A139A167
:1018F000822F880F880F8073369527953695279508
:101900002870822B892B8EB9A59894B388A1880F53
:101910008072892B84BBEAA9FBA980819CAD8923B5
:101920008083EAA9FBA9808198AD892B8083E8A9EF
:10193000F9A980819FA9892B8083861497042CF0B4
:10194000962D872D3401892E982E852D90E0AC019F
:1019500073E0559547957A95E1F748719C01E5E06C
:10196000220F331FEA95E1F72076342F322BAC019A
:10197000440F551F440F551F4073BC017595679563
:10198000759567956870462B880F991F282F2072D0
:10199000C201B20113E0759567951A95E1F7562FCC
:1019A0005871B20105E0660F771F0A95E1F760767E
:1019B000562BB201660F771F660F771F6073F20117
:1019C000F595E795F595E795E8706E2B880F991FCB
:1019D0008072181419040CF048C0F30190910201B0
:1019E00097789093020190910201932B90930201BA
:1019F0009EB1977C9EB99EB1942B9EB9A59894B345
:101A0000922B94BBAAA9BBA99C917CAD97239C93D4
:101A1000AAA9BBA99C9178AD972B9C9390910201A8
:101A200097789093020190910201952B9093020177
:101A30009EB1977C9EB99EB1962B9EB9A59894B302
:101A4000982B94BBAAA9BBA99C917CAD97239C938E
:101A5000AAA9BBA99C9178AD972B9C93319709F0CB
:101A6000BDCF91E0891A9108B4CF888D998D0097E8
:101A700051F50C891D89015011092A893B89215092
:101A80003109E881F9810680F781E02D50E040E0DE
:101A900070E060E0CE011995EEA5FFA580819EA9BA
:101AA000892B8083DF91CF911F910F91FF90EF9051
:101AB000DF90CF90BF90AF909F908F907F906F906E
:101AC0005F904F900895019739F7EEA5FFA58081AB
:101AD0009AAD89238083E8A9F9A980819BAD8923E8
:101AE00080838091020187788093020180910201B6
:101AF000809302018EB1877C8EB9749AA59884B3C5
:101B000084BBEAA9FBA980819CAD89238083EAA9D3
:101B1000FBA9808198AD892B8083E8A9F9A98081F0
:101B20009FA9892B8083809102018778809302018D
:101B3000409102012A893B8921503109832F8295E6
:101B4000880F8076932F9695969596959871942BFD
:101B5000892B809302018EB1877C8EB94EB12A8980
:101B60003B8921503109832F880F880F8073932F71
:101B7000969596959870942B892B8EB9A59894B3C9
:101B80002A893B8921503109832F880F8072892B44
:101B900084BBEAA9FBA980819CAD89238083EAA943
:101BA000FBA9808198AD892B8083E8A9F9A9808160
:101BB0009BAD892380838091020187788093020105
:101BC000809102018062809302018EB1877C8EB980
:101BD000749AA59884B384BBEAA9FBA980819CADC3
:101BE00089238083EAA9FBA9808198AD892B808312
:101BF000E8A9F9A980819FA9892B8083809102019E
:101C0000877880930201409102012A893B89C901AA
:101C1000019733E0969587953A95E1F788712150C1
:101C20002295220F2076822B842B809302018EB185
:101C3000877C8EB99EB12A893B898FEF820F880FEE
:101C4000880F807321503109369527953695279551
:101C50002870822B892B8EB9A59894B38A898150DC
:101C6000880F8072892B84BBEAA9FBA980819CAD77
:101C700089238083EAA9FBA9808198AD892B808381
:101C8000E8A9F9A980819BAD892380838091020115
:101C900087788093020180910201809302018EB1C6
:101CA000877C8EB9759AA59884B384BBEAA9FBA9F1
:101CB00080819CAD89238083EAA9FBA9808198ADAE
:101CC000892B8083E8A9F9A980819FA9892B80832A
:101CD00080910201877880930201909102012C8902
:101CE0003D8921503109832F869586958695887187
:101CF000892B932F9295990F9076892B80930201CF
:101D00008EB1877C8EB99EB12C893D8921503109D5
:101D1000832F869586958870892B932F990F990F1D
:101D20009073892B8EB9A59894B32C893D89215045
:101D30003109832F880F8072892B84BBEAA9FBA904
:101D400080819CAD89238083EAA9FBA9808198AD1D
:101D5000892B8083E8A9F9A980819BAD89238083A1
:101D60008091020187788093020180910201806254
:101D7000809302018EB1877C8EB9759AA59884B341
:101D800084BBEAA9FBA980819CAD89238083EAA951
:101D9000FBA9808198AD892B8083E8A9F9A980816E
:101DA0009FA9892B8083809102018778809302010B
:101DB000409102012C893D89C901019753E0969514
:101DC00087955A95E1F7887121502295220F207648
:101DD000822B842B809302018EB1877C8EB99EB1B9
:101DE0002C893D898FEF820F880F880F80732150D7
:101DF000310936952795369527952870822B892BA2
:101E00008EB9A59894B38C898150880F8072892BE4
:101E100084BBEAA9FBA980819CAD89238083EAA9C0
:101E2000FBA9808198AD892B8083EEA5FFA58081D9
:101E30009EA9892B808330CEEF92FF920F931F9340
:101E4000EBECFAE00489158922893389F12CE12C25
:101E500050E040E070E060E0CF010E94BB0B1F91BA
:101E60000F91FF90EF900895AF92BF92CF92DF92C3
:101E7000EF92FF920F931F93CF93DF9377FD43C1B0
:101E800057FD41C179015A016B01EC01E881F981EB
:101E90000684F785E02D19958C159D050CF433C14A
:101EA000E881F9810484F585E02DCE0119958A1524
:101EB0009B050CF428C1E881F9810680F781E02DAB
:101EC00085019601A501B601CE011995EEA5FFA5E4
:101ED00080819AAD8923808358A149A1E8A9F9A9F5
:101EE00080819BAD892380838091020187788093D4
:101EF0000201E0910201842F90E09C0163E035959E
:101F000027956A95E1F72871BC01F5E0660F771F08
:101F1000FA95E1F76076262B2E2B209302012EB145
:101F2000277C2EB9EEB19C01220F331F220F331FE5
:101F30002073BC0175956795759567956870262B1C
:101F40002E2B2EB9A59824B3880F991F8072822B4F
:101F500084BBEAA9FBA980819CAD89238083EAA97F
:101F6000FBA9808198AD892B8083809102018778BD
:101F70008093020160910201852F942F9C0103E060
:101F8000359527950A95E1F72871AC0135E0440FA6
:101F9000551F3A95E1F74076242B262B209302011A
:101FA0002EB1277C2EB96EB19C01220F331F220F58
:101FB000331F2073AC01559547955595479548704B
:101FC000242B262B2EB9A59824B3880F991F807235
:101FD000822B84BBEAA9FBA980819CAD89238083E5
:101FE000EAA9FBA9808198AD892B8083E8A9F9A98A
:101FF00080819FA9892B80838091020187788093BB
:102000000201609102018F2D90E09C01F3E0359573
:102010002795FA95E1F72871AC01A5E0440F551F0B
:10202000AA95E1F74076242B262B209302012EB1AE
:10203000277C2EB96EB19C01220F331F220F331F54
:102040002073AC0155954795559547954870242BBD
:10205000262B2EB9A59824B3880F991F8072822B46
:1020600084BBEAA9FBA980819CAD89238083EAA96E
:10207000FBA9808198AD892B8083809102018778AC
:102080008093020160910201C701970143E03595F9
:1020900027954A95E1F72871A70175E0440F551F70
:1020A0007A95E1F74076242B262B209302012EB15E
:1020B000277C2EB96EB19701220F331F220F331FD9
:1020C0002073A70155954795559547954870242B42
:1020D000262B2EB9A59824B3880F991F8072822BC6
:1020E00084BBEAA9FBA980819CAD89238083EAA9EE
:1020F000FBA9808198AD892B8083EEA5FFA5808107
:102100009EA9892B8083DF91CF911F910F91FF9022
:10211000EF90DF90CF90BF90AF9008952F923F92B5
:102120004F925F926F927F928F929F92AF92BF92E7
:10213000CF92DF92EF92FF920F931F93CF93DF9393
:1021400000D01F92CDB7DEB79C838B8339010E9DE3
:1021500050010F9DB00C1E9DB00C1124E40EF51E15
:1021600021E0E21AF1089801260F371F21503109AA
:10217000DC01ED91FC910680F781E02D8701199536
:102180001A141B040CF089C3AB81BC819E96ED919F
:10219000FC919F978081DA969C91DA9789238083BE
:1021A000D096ED91FC91D1978081DB969C91DB9745
:1021B0008923808392964C91929793963C91939722
:1021C0008091020187788093020120910201832E81
:1021D000912CC40153E0959587955A95E1F7887144
:1021E000B401E5E0660F771FEA95E1F76076862B8C
:1021F000822B809302018EB1877C8EB92EB1C401EF
:10220000880F991F880F991F8073B4017595679582
:10221000759567956870862B822B8EB9A59824B327
:10222000C401880F991F8072822B84BBD296ED91D6
:10223000FC91D3978081DC969C91DC9789238083E5
:10224000D296ED91FC91D3978081D8969C91D897A6
:10225000892B8083809102018778809302016091AD
:102260000201842F932F9C0143E0359527954A95D1
:10227000E1F72871AC0175E0440F551F7A95E1F73D
:102280004076242B262B209302012EB1277C2EB9D9
:102290006EB19C01220F331F220F331F2073AC013C
:1022A00055954795559547954870242B262B2EB963
:1022B000A59824B3880F991F8072822B84BBD29675
:1022C000ED91FC91D3978081DC969C91DC978923DA
:1022D0008083D296ED91FC91D3978081D8969C9182
:1022E000D897892B8083D096ED91FC91D1978081EE
:1022F000D7969C91D797892B80838091010187780D
:10230000809301018DB1877C8DB99D9858968D91F0
:102310009C91892B09F024C17A826982A501A2E0EF
:10232000B0E0EB81FC8124A935A9F9018081EB8122
:10233000FC8195AD8923F901808300C000C000C0F5
:10234000000080910001809100018CB18CB182B3BA
:10235000EB81FC8124A935A9F9018081EB81FC8105
:1023600091AD892BF9018083EB81FC8124A935A9EA
:10237000F9018081EB81FC8195AD8923F90180838E
:1023800000C000C000C000008091000180910001E9
:102390008CB18CB182B3EB81FC8124A935A9F90100
:1023A0008081EB81FC8191AD892BF9018083EB81E8
:1023B000FC8124A935A9F9018081EB81FC8195ADCF
:1023C0008923F901808300C000C000C00000F090A4
:1023D0000001609100017CB18CB122B3EB81FC81E2
:1023E00004A915A9F8019081EB81FC8131AD932BF3
:1023F000F8019083EB81FC8104A915A9F801908173
:10240000EB81FC8135AD9323F801908300C000C0BF
:1024100000C0000020900001309000014CB0ECB0F2
:1024200052B2EB81FC8104A915A9F8019081EB81DE
:10243000FC8131AD932BF8019083119709F08DC089
:1024400090E095958795959587958C70992730E0C4
:102450003595279520713327082F022BF4E07F9FB5
:10246000D0011124A072BB270A2B28E0629FB00183
:102470001124607C7727602B0F2D10E0B5E01595B7
:102480000795BA95E1F70370062BF12CF594E794C4
:10249000F594E7943CE0E322FF24852D90E09595A8
:1024A000879580719927E82A84E0489E20011124AD
:1024B00090E249225524E428A8E03A9EC001112464
:1024C000807C9927E82A822D90E035E095958795C4
:1024D0003A95E1F78370E82A102F0E2DE981FA81F1
:1024E00001931193FA83E9834150510909F017CF01
:1024F000AA0CBB1C6A0C7B1CAB81BC8154960D9151
:102500001C9155970150110952962D913C9153976A
:1025100021503109ED91FC9111970680F781E02D52
:1025200050E040E070E060E0CD011995AB81BC81E6
:102530009E96ED91FC919F978081D6969C91892BD8
:102540008083809101018867809301018DB1886348
:102550008DB99D9AB12CA12C13CEA1E0B0E0E1CEB3
:10256000AB81BC81D496ED91FC91D5978081DD96AD
:102570009C91DD978923808300C000C000C00000CB
:1025800080910001809100018CB18CB182B3D4960E
:10259000ED91FC91D5978081D9969C91892B808370
:1025A00073018501EB81FC8184A595A5813091059E
:1025B00009F0E1C004A8F5A9E02D8081AB81BC81C0
:1025C000DD969C918923808300C000C000C000007C
:1025D0008091000160910001ECB14CB122B3B8E0F0
:1025E0006B9FB0011124607C772734E0E39FF001FA
:1025F0001124E072FF276E2B50E0559547955595B5
:1026000047954C705527642B30E035952795207100
:102610003327622B90E0A5E095958795AA95E1F781
:102620008370682BAB81BC81D496ED91FC91D597DA
:102630008081D9969C91D997892B8083D496ED91EE
:10264000FC91D5978081DD969C918923808300C081
:1026500000C000C000008091000140910001ACB1B9
:10266000ECB122B3B8E04B9FA0011124407C552768
:10267000F4E0AF9FD0011124A072BB274A2BF0E0F9
:10268000F595E795F595E795EC70FF274E2B30E033
:102690003595279520713327422B90E025E09595BD
:1026A00087952A95E1F78370482BAB81BC81D4963E
:1026B000ED91FC91D5978081D9969C91D997892BE2
:1026C0008083D496ED91FC91D5978081DD969C9185
:1026D0008923808300C000C000C0000080910001F9
:1026E00020910001CCB0ACB1E2B3B8E02B9F9001D7
:1026F0001124207C3327F4E0CF9E6001112490E266
:10270000C922DD242C29B0E0B595A795B595A795EC
:10271000AC70BB272A2BF0E0F595E795E071FF2719
:102720002E2B90E075E0959587957A95E1F783706B
:10273000282BAB81BC81D496ED91FC91D5978081FB
:10274000D9969C91D997892B8083ED91FC91119713
:102750000190F081E02DCD0119956C01F701C19236
:10276000D1927F010150110909F01CCFAA0CBB1CAA
:102770006A0C7B1CDBCE892B89F7AB81BC81D4969C
:10278000ED91FC91D5978081DD969C918923808382
:1027900000C000C000C00000209100018091000135
:1027A000ECB16CB142B3B8E08B9FC0011124807CC6
:1027B000992734E0E39FF0011124E072FF278E2B6C
:1027C00070E075956795759567956C707727862B82
:1027D00050E05595479540715527842B30E045E0F2
:1027E000359527954A95E1F72370822BAB81BC8103
:1027F000D496ED91FC91D5979081D9962C91D9974B
:10280000922B9083D496ED91FC91D5979081DD9693
:102810002C919223908300C000C000C00000609102
:10282000000170E055E0759567955A95E1F7637082
:10283000772790910001B8E09B9FA0011124407C74
:102840005527462B572B2CB1E4E02E9F90011124E5
:1028500020723327422B532BCCB0D12CD594C79464
:10286000D594C794FCE0CF22DD244C295D29C2B267
:10287000D12CD594C79420E1C222DD24C42AD52AC4
:10288000AB81BC81D496ED91FC91D5979081D9967E
:102890002C91922B9083D82A61CF90E080E00F900A
:1028A0000F900F900F90DF91CF911F910F91FF909C
:1028B000EF90DF90CF90BF90AF909F908F907F90E0
:1028C0006F905F904F903F902F90089538E0439F16
:1028D000C0011124807E9770269526952695822B1F
:1028E00070E0762F66276627787F862B972B0895D2
:1028F000EF92FF920F93CF93DF93DC0101709E96CE
:10290000ED91FC919F978081DA969C91DA978923CB
:102910008083222309F49DC058968D919C915997EC
:10292000892BC9F5D096ED91FC91D1978081DB96EA
:102930009C91DB9789238083809102018778809323
:10294000020180910201809302018EB1877C8EB9D1
:102950008EB18EB9A59884B384BBD296ED91FC91CB
:10296000D3978081DC969C91DC9789238083D296D3
:10297000ED91FC91D3978081D8969C91D897892B23
:102980008083D096ED91FC91D1978081D7969C91D0
:10299000D797892B8083D096ED91FC91D197808138
:1029A000DB969C91DB978923808380910201877855
:1029B00080930201E091020190962D913C919197B4
:1029C000C901F3E096958795FA95E1F7887122950C
:1029D000220F2076822B8E2B809302018EB1877C72
:1029E0008EB99EB190962D913C919197822F880F30
:1029F000880F807336952795369527952870822BFA
:102A0000892B8EB9A59894B390968C919097880F46
:102A10008072892B84BBD296ED91FC91D3978081F3
:102A2000DC969C91DC9789238083D296ED91FC9172
:102A3000D3978081D8969C91D897892B8083D09604
:102A4000ED91FC91D1978081D7969C91D797892B56
:102A50008083EB01BA01161617060CF0A2C0002302
:102A600009F49CC0FE0185919491482F392F8091E3
:102A7000020187788093020120910201E32EF12C5C
:102A8000C70153E0959587955A95E1F78871F7014D
:102A900095E0EE0FFF1F9A95E1F7E0768E2B822BE3
:102AA000809302018EB1877C8EB92EB1C701880F49
:102AB000991F880F991F8073F701F595E795F59594
:102AC000E795E8708E2B822B8EB9A59824B3C701A9
:102AD000880F991F8072822B84BBD296ED91FC9156
:102AE000D3978081DC969C91DC9789238083D29652
:102AF000ED91FC91D3978081D8969C91D897892BA2
:102B0000808380910201877880930201E091020125
:102B1000842F932F9C01F3E035952795FA95E1F7E3
:102B20002871AC0135E0440F551F3A95E1F7407626
:102B3000242B2E2B209302012EB1277C2EB9EEB12F
:102B40009C01220F331F220F331F2073AC015595B8
:102B50004795559547954870242B2E2B2EB9A5984F
:102B600024B3880F991F8072822B84BBD296ED917B
:102B7000FC91D3978081DC969C91DC97892380839C
:102B8000D296ED91FC91D3978081D8969C91D8975D
:102B9000892B80832296615071095DCF48813981EC
:102BA00066CF9E96ED91FC919F978081D6969C91E1
:102BB000892B8083DF91CF910F91FF90EF90089543
:102BC000CF93DF93FC01A6A5B7A58C9192AD892385
:102BD0008C93A0A9B1A98C9193AD89238C938091FA
:102BE000020187788093020130910201872F992793
:102BF000DC01C3E0B595A795CA95E1F7A871EC0192
:102C0000B5E0CC0FDD1FBA95E1F7C076AC2BA32B56
:102C1000A09302013EB1377C3EB93EB1DC01AA0F60
:102C2000BB1FAA0FBB1FA073EC01D595C795D59507
:102C3000C795C870AC2BA32BAEB9A59834B3880F39
:102C4000991F8072832B84BBA2A9B3A98C9194ADE8
:102C500089238C93A2A9B3A98C9190AD892B8C93D5
:102C60008091020187788093020130910201CB01AB
:102C7000D3E095958795DA95E1F78871DB0195E0CA
:102C8000AA0FBB1F9A95E1F7A0768A2B832B80931E
:102C900002018EB1877C8EB93EB1CB01880F991F9E
:102CA000880F991F8073DB01B595A795B595A795FA
:102CB000A8708A2B832B8EB9A59834B3CB01880FCB
:102CC000991F8072832B84BBA2A9B3A98C9194AD68
:102CD00089238C93A2A9B3A98C9190AD892B8C9355
:102CE000A0A9B1A98C9197A9892B8C93DA013FEF08
:102CF000320F12160CF0DAC08D9190910201977884
:102D0000909302012091020190E0AC01C3E055953F
:102D10004795CA95E1F74871EC0155E0CC0FDD1FEE
:102D20005A95E1F7C0764C2B422B409302012EB10D
:102D3000277C2EB92EB1AC01440F551F440F551FEF
:102D40004073EC01D595C795D595C795C8704C2BA8
:102D5000422B4EB9A59824B3880F991F8072822BFD
:102D600084BBC2A9D3A9888194AD89238883C2A9D1
:102D7000D3A9888190AD892B8883332309F494C02B
:102D8000808D918D019709F08FC06F5F7F4FC0A933
:102D9000D1A9888193AD89238883809102018778A6
:102DA0008093020120910201872F9927AC01C3E093
:102DB00055954795CA95E1F74871EC0155E0CC0F60
:102DC000DD1F5A95E1F7C0764C2B422B4093020150
:102DD0002EB1277C2EB92EB1AC01440F551F440FE4
:102DE000551F4073EC01D595C795D595C795C8700B
:102DF0004C2B422B4EB9A59824B3880F991F807293
:102E0000822B84BBC2A9D3A9888194AD89238883EE
:102E1000C2A9D3A9888190AD892B888380910201B2
:102E200087788093020120910201CB01D3E0959530
:102E30008795DA95E1F78871AB0195E0440F551F4E
:102E40009A95E1F74076842B822B809302018EB114
:102E5000877C8EB92EB1CB01880F991F880F991FDF
:102E60008073AB0155954795559547954870842BD0
:102E7000822B8EB9A59824B3CB01880F991F80723D
:102E8000822B84BBC2A9D3A9888194AD892388836E
:102E9000C2A9D3A9888190AD892B8883C0A9D1A963
:102EA000888197A9892B8883232F21CFA6A5B7A531
:102EB0008C9196A9892B8C93DF91CF9108954F9295
:102EC0005F926F927F928F929F92AF92BF92CF92BA
:102ED000DF92EF92FF920F931F93CF93DF9300D077
:102EE00000D01F921F92CDB7DEB77C01DC019E9609
:102EF000ED91FC919F978081DA969C91DA978923D6
:102F000080835896CD90DC90C114D10409F072C62C
:102F10006A01DB01F701868997898230910509F4FE
:102F20003AC68330910509F451C6019709F05FC68E
:102F3000A685B7856801C094D09440955095FA0154
:102F4000EA0FFB1FCB0189019F01AB01B6016A0F9C
:102F50007B1FD701D096CD90DC90D601BC90D701D5
:102F6000DB96AC90BA20D601BC92A0910201A77862
:102F7000A0930201A0910201A0930201AEB1A77C2F
:102F8000AEB9AEB1AEB9A598A4B3A4BBD701D296E1
:102F9000CD90DC90D601BC90D701DC96AC90BA20E5
:102FA000D601BC92D701D296CD90DC90D601BC90D0
:102FB000D701D896AC90BA28D601BC92A091020154
:102FC000A778A0930201A0910201A860A09302013A
:102FD000AEB1A77CAEB9AEB1AEB9A598A59AD701EE
:102FE000D296CD90DC90D601BC90D701DC96AC9007
:102FF000BA20D601BC92D701D296CD90DC90D601F2
:10300000BC90D701D896AC90BA28D601BC92D70113
:10301000D096CD90DC90D601BC90D701D796AC90DD
:10302000BA28D601BC92A0910201A778A093020110
:1030300090900201672E77246301B3E0D594C79482
:10304000BA95E1F7BC2DB871CB2E5301A5E0AA0CBF
:10305000BB1CAA95E1F7AA2DA076CA2AC928C0925E
:103060000201DEB0BD2DB77CBEB99EB06301CC0CB1
:10307000DD1CCC0CDD1CAC2DA073CA2E5301B59405
:10308000A794B594A794BA2DB870CB2AC928CEB806
:10309000A598D4B2D301AA0FBB1FA072AD29A4BBBF
:1030A000D701D296CD90DC90D601BC90D701DC96AA
:1030B000AC90BA20D601BC92D701D296CD90DC90CC
:1030C000D601BC90D701D896AC90BA28D601BC9254
:1030D000A0910201A778A0930201B0900201DB0148
:1030E000B595A795B595A795B595A795A8716B01C9
:1030F000B5E0CC0CDD1CBA95E1F7BC2DB076AB2B5E
:10310000AB29A0930201AEB1A77CAEB9BEB0DB0182
:10311000AA0FBB1FAA0FBB1FA0736B01D594C79446
:10312000D594C794BC2DB870AB2BAB29AEB9A5987C
:10313000A4B3660F771F60726A2B64BBD701D29667
:10314000CD90DC90D6016C91D701DC967C91672301
:10315000D6016C93D701D296CD90DC90D6016C91BC
:10316000D701D8967C91672BD6016C93D701D09666
:10317000CD90DC90D6016C91D701DB967C916723D2
:10318000D6016C93609102016778609302016091AF
:103190000201609302016EB1677C6EB96EB16EB9C7
:1031A000A59864B364BBD701D296CD90DC90D601CC
:1031B0006C91D701DC967C916723D6016C93D70183
:1031C000D296CD90DC90D6016C91D701D8967C91A7
:1031D000672BD6016C9360910201677860930201BE
:1031E000609102016862609302016EB1677C6EB902
:1031F0006EB16EB9A598A59AD701D296CD90DC9004
:10320000D6016C91D701DC967C916723D6016C9333
:10321000D701D296CD90DC90D6016C91D701D8968B
:103220007C91672BD6016C93D701D096CD90DC9022
:10323000D6016C91D701D7967C91672BD6016C9300
:1032400060910201677860930201B0900201632FE0
:103250007727DB01B595A795B595A795B595A79562
:10326000A8716B01B5E0CC0CDD1CBA95E1F7BC2D63
:10327000B076AB2BAB29A0930201AEB1A77CAEB95F
:10328000BEB0DB01AA0FBB1FAA0FBB1FA0736B014F
:10329000D594C794D594C794BC2DB870AB2BAB29EB
:1032A000AEB9A598A4B3660F771F60726A2B64BB92
:1032B000D701D296CD90DC90D6016C91D701DC96E7
:1032C0007C916723D6016C93D701D296CD90DC9088
:1032D000D6016C91D701D8967C91672BD6016C935F
:1032E00060910201677860930201D0900201B901F8
:1032F000A3E075956795AA95E1F76871D90175E026
:10330000AA0FBB1F7A95E1F7A0766A2B6D2960930F
:1033100002016EB1677C6EB9DEB0B901660F771F2E
:10332000660F771F6073D901B595A795B595A795D9
:10333000A8706A2B6D296EB9A59864B3220F331F4C
:103340002072262B24BBD701D2966D917C91DB0194
:103350002C91D701DC963C912323DB012C93D701E0
:10336000D2966D917C91DB012C91D701D8963C913E
:10337000232BDB012C93D701D0966D917C91DB013F
:103380002C91D701DB963C912323DB012C932091D8
:10339000020127782093020120910201209302016B
:1033A0002EB1277C2EB92EB12EB9A59824B324BBFB
:1033B000D701D2966D917C91DB012C91D701DC96DF
:1033C0003C912323DB012C93D701D2966D917C9104
:1033D000DB012C91D701D8963C91232BDB012C9358
:1033E0002091020127782093020120910201286494
:1033F000209302012EB1277C2EB92EB12EB9A598AB
:10340000A59AD701D2966D917C91DB012C91D701C1
:10341000DC963C912323DB012C93D701D2966D914E
:103420007C91DB012C91D701D8963C91232BDB01B9
:103430002C93D701D0966D917C91DB012C91D70113
:10344000D7963C91232BDB012C9320910201277806
:1034500020930201D0900201252F3327B901A3E068
:1034600075956795AA95E1F76871D90175E0AA0F7E
:10347000BB1F7A95E1F7A0766A2B6D296093020154
:103480006EB1677C6EB9DEB0B901660F771F660F4B
:10349000771F6073D901B595A795B595A795A870C5
:1034A0006A2B6D296EB9A59864B3220F331F207261
:1034B000262B24BBD701D2966D917C91DB012C91F8
:1034C000D701DC963C912323DB012C93D701D296C4
:1034D0006D917C91DB012C91D701D8963C91232BE7
:1034E000DB012C9320910201277820930201A09107
:1034F00002019A01B3E035952795BA95E1F7287155
:10350000BA0135E0660F771F3A95E1F76076262B12
:103510002A2B209302012EB1277C2EB9AEB19A013D
:10352000220F331F220F331F2073BA017595679541
:10353000759567956870262B2A2B2EB9A59824B30C
:10354000440F551F4072422B44BBD701D2964D9178
:103550005C91DA012C91D701DC963C912323DA01AE
:103560002C93D701D2964D915C91DA012C91D70121
:10357000D8963C91232BDA012C93D701D0964D910C
:103580005C91DA012C91D701DB963C912323DA017F
:103590002C932091020127782093020120910201AF
:1035A000209302012EB1277C2EB92EB12EB9A598F9
:1035B00024B324BBD701D2964D915C91DA012C91B2
:1035C000D701DC963C912323DA012C93D701D296C4
:1035D0004D915C91DA012C91D701D8963C91232B27
:1035E000DA012C9320910201277820930201209187
:1035F00002012866209302012EB1277C2EB92EB13C
:103600002EB9A598A59AD701D2964D915C91DA0171
:103610002C91D701DC963C912323DA012C93D7011E
:10362000D2964D915C91DA012C91D701D8963C91BC
:10363000232BDA012C93D701D0964D915C91DA01BE
:103640002C91D701D7963C91232BDA012C93209112
:103650000201277820930201A0910201212F332734
:10366000A90163E0559547956A95E1F74871B9015D
:10367000B5E0660F771FBA95E1F76076462B4A2BC7
:10368000409302014EB1477C4EB9AEB1A901440F3F
:10369000551F440F551F4073B90175956795759572
:1036A00067956870462B4A2B4EB9A59844B3220FF4
:1036B000331F2072242B24BBD701D2964D915C91ED
:1036C000DA012C91D701DC963C912323DA012C936B
:1036D000D701D2964D915C91DA012C91D701D89601
:1036E0003C91232BDA012C9320910201277820931F
:1036F000020160910201980173E0359527957A9552
:10370000E1F72871A801A5E0440F551FAA95E1F73C
:103710004076242B262B209302012EB1277C2EB934
:103720006EB19801220F331F220F331F2073A8019F
:1037300055954795559547954870242B262B2EB9BE
:10374000A59844B3000F111F0072042B04BBD701CE
:10375000D2964D915C91DA012C91D701DC963C9187
:103760002323DA012C93D701D2964D915C91DA0193
:103770002C91D701D8963C91232BDA012C93D701B9
:10378000D0964D915C91DA012C91D701DB963C915A
:103790002323DA012C932091020127782093020140
:1037A00020910201209302012EB1277C2EB92EB167
:1037B0002EB9A59824B324BBD701D2964D915C9124
:1037C000DA012C91D701DC963C912323DA012C936A
:1037D000D701D2964D915C91DA012C91D701D89600
:1037E0003C91232BDA012C9320910201277820931E
:1037F000020120910201209302012EB1277C2EB9F3
:10380000739AA59824B324BBD701D2964D915C91AD
:10381000DA012C91D701DC963C912323DA012C9319
:10382000D701D2964D915C91DA012C91D701D896AF
:103830003C91232BDA012C93D701D0964D915C91CA
:10384000DA012C91D701D7963C91232BDA012C93E6
:1038500020910201277820930201A09102012F2FCD
:103860003327A90173E0559547957A95E1F748719B
:10387000B901B5E0660F771FBA95E1F76076462B80
:103880004A2B409302014EB1477C4EB9AEB1A9011B
:10389000440F551F440F551F4073B9017595679527
:1038A000759567956870462B4A2B4EB9A59844B319
:1038B000220F331F2072242B24BBD701D2964D91A7
:1038C0005C91DA012C91D701DC963C912323DA013B
:1038D0002C93D701D2964D915C91DA012C91D701AE
:1038E000D8963C91232BDA012C9320910201277862
:1038F00020930201609102019F0173E035952795A5
:103900007A95E1F72871AF01A5E0440F551FAA95FC
:10391000E1F74076242B262B209302012EB1277C41
:103920002EB96EB19F01220F331F220F331F207358
:10393000AF0155954795559547954870242B262BF3
:103940002EB9A59844B3EE0FFF1FE072E42BE4BB41
:10395000D701D296ED91FC91D3972081DC963C91D2
:10396000DC9723232083D296ED91FC91D39720817D
:10397000D8963C91D897232B2083D096ED91FC913B
:10398000D1972081DB963C91DB97232320832091E4
:103990000201277820930201209102012093020165
:1039A0002EB1277C2EB92EB12EB9A59824B324BBF5
:1039B000D296ED91FC91D3972081DC963C91DC97D7
:1039C00023232083D296ED91FC91D3972081D89622
:1039D0003C91D897232B20832091020127782093B4
:1039E0000201209102012062209302012EB1277C66
:1039F0002EB9739AA59824B324BBD296ED91FC916D
:103A0000D3972081DC963C91DC9723232083D296A8
:103A1000ED91FC91D3972081D8963C91D897232B98
:103A20002083D096ED91FC91D1972081D7963C913F
:103A3000D797232B2083209102012778209302011E
:103A4000E0910201292F3327A90163E0559547959D
:103A50006A95E1F74871B901F5E0660F771FFA95AD
:103A6000E1F76076462B4E2B409302014EB1477C26
:103A70004EB9EEB1A901440F551F440F551F4073B5
:103A8000B90175956795759567956870462B4E2BAE
:103A90004EB9A59844B3220F331F2072242B24BBA8
:103AA000D296ED91FC91D3972081DC963C91DC97E6
:103AB00023232083D296ED91FC91D3972081D89631
:103AC0003C91D897232B20832091020127782093C3
:103AD0000201609102019C0173E0359527957A956A
:103AE000E1F72871AC01E5E0440F551FEA95E1F7D5
:103AF0004076242B262B209302012EB1277C2EB951
:103B00006EB19C01220F331F220F331F2073AC01B3
:103B100055954795559547954870242B262B2EB9DA
:103B2000A59824B3880F991F8072822B84BBD296EC
:103B3000ED91FC91D3978081DC969C91DC97892351
:103B40008083D296ED91FC91D3978081D8969C91F9
:103B5000892B8083D7019E96ED91FC919F97808160
:103B6000D6969C91892B808328960FB6F894DEBF59
:103B70000FBECDBFDF91CF911F910F91FF90EF90BE
:103B8000DF90CF90BF90AF909F908F907F906F907D
:103B90005F904F9008958685978520953095B9015F
:103BA000680F791F9C012A1B3B0B2150310980892A
:103BB000918900951095A801480F591F860100951D
:103BC0001095080F191FC801F901C3C9A089B1894F
:103BD0006901C094D094CD01861B970B0197FA011F
:103BE00098018C01BA01A6014A0F5B1FB2C9CA0134
:103BF000FB01AFC9A72FBB27A7FDBA95632E77247A
:103C000067FC7A94452E552447FC5A94A12EBB2478
:103C1000A7FCBA94CA94CD2809F0AEC3F701C0A896
:103C2000D1A8F6019080F70183AC9820F60190822C
:103C3000D0900201FD2DF778F0930201D09002019F
:103C40006894D6F8D0920201DEB08D2D877C8EB9B3
:103C5000DEB0DEB8A598D4B2D4BAF701C2A8D3A812
:103C6000F6019080F70184AC9820F6019082F7016C
:103C7000C2A8D3A8F6019080F70180AC9828F6017D
:103C80009082F701C0A8D1A8F6019080F70187A81B
:103C90009828F6019082D0900201FD2DF778F093DC
:103CA000020190900201C72EC594C594C5948C2D35
:103CB0008871982A6D0185E0CC0CDD1C8A95E1F7AE
:103CC0009C2D9076C92EC928C0920201DEB0ED2D40
:103CD000E77CEEB99EB0C72EC594C594FC2DF87054
:103CE0009F2A6D01CC0CDD1CCC0CDD1C8C2D80734F
:103CF000C82EC928CEB8A598D4B2AA0FBB1FA072EF
:103D0000AD29A4BBD701D296CD90DC90F601A0815D
:103D1000F701B4ADAB23F601A083D701D296CD90C5
:103D2000DC90F601A081F701B0ADAB2BF601A083CA
:103D3000D701D096CD90DC90F601A081F701B3AD0C
:103D4000AB23F601A083A0910201A778A093020102
:103D5000A0910201A066A0930201AEB1A77CAEB90A
:103D6000AEB1AEB9A598A4B3A4BBD701D296CD90FD
:103D7000DC90F601A081F701B4ADAB23F601A0837E
:103D8000D701D296CD90DC90F601A081F701B0ADBD
:103D9000AB2BF601A083D701D096CD90DC90F60135
:103DA000A081F701B7A9AB2BF601A083A091020176
:103DB000A778A093020190900201DB01F3E0B59592
:103DC000A795FA95E1F7A8716B01B5E0CC0CDD1C65
:103DD000BA95E1F7BC2DB076AB2BA929A0930201CF
:103DE000AEB1A77CAEB99EB0DB01AA0FBB1FAA0F74
:103DF000BB1FA0736B01D594C794D594C794BC2DF9
:103E0000B870AB2BA929AEB9A598A4B3660F771FDC
:103E100060726A2B64BBF701A2A9B3A96C9174AD5F
:103E200067236C93A2A9B3A96C9170AD672B6C93B7
:103E3000A0A9B1A96C9173AD67236C936091020145
:103E400067786093020160910201606460930201EF
:103E50006EB1677C6EB9749AA59864B364BBA2A96D
:103E6000B3A96C9174AD67236C93A2A9B3A96C91AB
:103E700070AD672B6C93A0A9B1A96C9177A9672B42
:103E80006C93609102016778609302017091020166
:103E9000652F6595659565956871672BD20185E0FD
:103EA000AA0FBB1F8A95E1F7A0766A2B60930201E7
:103EB0006EB1677C6EB97EB1652F6595659568704A
:103EC000672BD201AA0FBB1FAA0FBB1FA0736A2BBF
:103ED0006EB9A59864B3C201880F991F8072862BB2
:103EE00084BBA2A9B3A98C9194AD89238C93A2A978
:103EF000B3A98C9190AD892B8C93A0A9B1A98C9179
:103F000093AD89238C93809102018778809302017D
:103F1000809102018066809302018EB1877C8EB908
:103F2000749AA59884B384BBA2A9B3A98C9194ADCB
:103F300089238C93A2A9B3A98C9190AD892B8C93E2
:103F4000A0A9B1A98C9197A9892B8C93809102018A
:103F5000877880930201A0910201CA01B3E0959590
:103F60008795BA95E1F78871BA0195E0660F771FDA
:103F70009A95E1F76076862B8A2B809302018EB1A9
:103F8000877C8EB9AEB1CA01880F991F880F991F1F
:103F90008073BA0175956795759567956870862BDE
:103FA0008A2B8EB9A59884B3440F551F4072482BB5
:103FB00044BBA2A9B3A98C9194AD89238C93A2A9E7
:103FC000B3A98C9190AD892B8C93A0A9B1A98C91A8
:103FD00093AD89238C9380910201877880930201AD
:103FE00080910201809302018EB1877C8EB9749A10
:103FF000A59884B384BBA2A9B3A98C9194AD89235D
:104000008C93A2A9B3A98C9190AD892B8C93A0A974
:10401000B1A98C9197A9892B8C9380910201877803
:104020008093020190910201832F85958595859556
:104030008871892BA30165E0440F551F6A95E1F74C
:104040004076842B809302018EB1877C8EB99EB11D
:10405000832F859585958870892BA301440F551F63
:10406000440F551F4073842B8EB9A59884B3F30178
:10407000EE0FFF1FE072E82BE4BBD701D296ED9163
:10408000FC91D3978081DC969C91DC978923808377
:10409000D296ED91FC91D3978081D8969C91D89738
:1040A000892B8083D096ED91FC91D1978081DB960E
:1040B0009C91DB978923808380910201877880938C
:1040C0000201809102018062809302018EB1877C9F
:1040D0008EB9749AA59884B384BBD296ED91FC9165
:1040E000D3978081DC969C91DC9789238083D2963C
:1040F000ED91FC91D3978081D8969C91D897892B8C
:104100008083D096ED91FC91D1978081D7969C9138
:10411000D797892B80838091020187788093020151
:1041200060910201C90143E0959587954A95E1F7B1
:104130008871A90175E0440F551F7A95E1F7407623
:10414000842B862B809302018EB1877C8EB96EB151
:10415000C901880F991F880F991F8073A901559570
:104160004795559547954870842B862B8EB9A59811
:1041700064B3220F331F2072262B24BBD296ED91FD
:10418000FC91D3978081DC969C91DC978923808376
:10419000D296ED91FC91D3978081D8969C91D89737
:1041A000892B8083D096ED91FC91D1978081DB960D
:1041B0009C91DB978923808380910201877880938B
:1041C000020180910201809302018EB1877C8EB939
:1041D000759AA59884B384BBD296ED91FC91D39740
:1041E0008081DC969C91DC9789238083D296ED9127
:1041F000FC91D3978081D8969C91D897892B808306
:10420000D096ED91FC91D1978081D7969C91892B86
:10421000808380910201877880930201909102014E
:10422000812F8595859585958871892B950195E0D8
:10423000220F331F9A95E1F72076822B809302019B
:104240008EB1877C8EB99EB1812F859585958870BA
:10425000892B9501220F331F220F331F2073822BCE
:104260008EB9A59884B3AA0CBB1CBA2DB072AB2E24
:10427000A82AA4BAD701D296ED91FC91D397808158
:10428000DC969C91DC9789238083D296ED91FC91FA
:10429000D3978081D8969C91D897892B8083D0968C
:1042A000ED91FC91D1978081DB969C91DB978923DE
:1042B00080838091020187788093020180910201BE
:1042C0008062809302018EB1877C8EB9759AA59821
:1042D00084B384BBD296ED91FC91D3978081DC9618
:1042E0009C91DC9789238083D296ED91FC91D397A2
:1042F0008081D8969C91D897892B8083D096ED9118
:10430000FC91D1978081D7969C91D797892B8083F8
:104310008091020187788093020140910201C801D7
:1043200063E0959587956A95E1F78871980175E046
:10433000220F331F7A95E1F72076822B842B80930E
:1043400002018EB1877C8EB94EB1C801880F991FCA
:10435000880F991F80739801359527953595279576
:104360002870822B842B8EB9A59844B3000F111F9F
:104370000072042B04BBDBCBAD836E836F82288776
:1043800049824A83AB820C83F701648D758D24E0EA
:10439000AE014B5F5F4FC7010E94E015D7015E96EB
:1043A0006D917C9124E0AE014F5F5F4FC7010E9489
:1043B000E015D0CB20912107260F3327331F213260
:1043C0003105ECF42091AA08FC0190E080E0243053
:1043D00069F082E00895A09121072191AC014F5F1F
:1043E000584FA40FB52FB11D2C930196861798F343
:1043F00080912107680F6093210780E0089581E094
:1044000008951092AA0881E08093A9081092840868
:1044100061E084E10E94900861E085E10E949008DB
:10442000E9EBF0E080818E7F808380818D7F8083C7
:1044300088E48093B80085E48093BC000895CF930E
:10444000DF9391E0909300078823B9F0C091B80002
:10445000D091BA008091BC008A7B8093BC0060E060
:1044600084E10E94900860E085E10E9490080E942B
:104470000122D093BA00C093B800DF91CF91089584
:104480008F929F92AF92BF92CF92DF92EF92FF9264
:104490000F931F93CF93DF93D091570AD13208F037
:1044A000D7C0182FC091D1080E9417096B017C0159
:1044B0008091AA0881116BC082E08093AA081093B2
:1044C000A9088FEF8093A8081092A708D093A60898
:1044D000A1EBB8E0E6E8F8E080E0D81391C01092D4
:1044E000850880918508CC0FC82BC09385088091E2
:1044F0008408813009F088C0109284080E9417094E
:104500006B017C01809185088093BB008091AC0891
:104510009091AD08A091AE08B091AF08892B8A2B7D
:104520008B2BA1F00E9417090091AC081091AD08E7
:104530002091AE083091AF086C197D098E099F0952
:10454000061717072807390708F442C08091BC00F6
:1045500083FDD8CF85EC8093BC000E9417096B01C6
:104560007C018091AA08823009F450C08091A8088B
:104570008F3F09F46FC08091A808803209F46CC0A5
:104580008091A808803309F469C084E026C0809136
:10459000AC089091AD08A091AE08B091AF08892BFE
:1045A0008A2B8B2B09F484CF0E9417098090AC08CA
:1045B0009090AD08A090AE08B090AF086C197D093E
:1045C0008E099F0986169706A806B90608F070CFCF
:1045D0008091AB080E941F2285E01092580A109229
:1045E000570A1092B008DF91CF911F910F91FF9061
:1045F000EF90DF90CF90BF90AF909F908F900895F5
:104600009D9191938F5F69CF85EEA5CF8091AC0886
:104610009091AD08A091AE08B091AF08892B8A2B7C
:104620008B2B09F49ECF0E9417090091AC081091C2
:10463000AD082091AE083091AF086C197D098E0944
:104640009F09061717072807390708F08ACFC0CF38
:1046500081E0C3CF80E0C1CF82E0BFCF83E0BDCF98
:10466000CF92DF92EF92FF920F931F93CF93DF933E
:10467000D82FC62F613208F098C00E9417096B012D
:104680007C018091AA0881116BC081E08093AA0807
:104690008093A9089FEF9093A8081092A7089C0FF9
:1046A0009093A6088093850880918508DD0FD82B0C
:1046B000D093850880918408813009F078C01092E9
:1046C00084080E9417096B017C0180918508809302
:1046D000BB008091AC089091AD08A091AE08B0915C
:1046E000AF08892B8A2B8B2BA1F00E941709009110
:1046F000AC081091AD082091AE083091AF086C194C
:104700007D098E099F09061717072807390708F43E
:1047100048C08091BC0083FDD8CF85EC8093BC005D
:104720000E9417096B017C018091AA08813009F46D
:1047300040C08091A7088C1710F4C091A708E6E844
:10474000F8E0A4E6B8E080E08C1355C08C2FDF9130
:10475000CF911F910F91FF90EF90DF90CF90089530
:104760008091AC089091AD08A091AE08B091AF08CF
:10477000892B8A2B8B2B09F484CF0E941709009177
:10478000AC081091AD082091AE083091AF086C19BB
:104790007D098E099F09061717072807390708F0B2
:1047A00070CF8091AB080E941F22C0E0CFCF85EE72
:1047B000B5CF8091AC089091AD08A091AE08B091B2
:1047C000AF08892B8A2B8B2B09F4AECF0E941709D7
:1047D0000091AC081091AD082091AE083091AF085F
:1047E0006C197D098E099F090617170728073907D5
:1047F00008F09ACFD6CF91919D938F5FA5CFE0918E
:104800005A0A8091590AE81730F4F0E0EC59F74F52
:10481000808190E008958FEF9FEF089590915A0A5C
:104820008091590A2FEF3FEF981748F4E92FF0E0F5
:10483000EC59F74F208130E09F5F90935A0AC901ED
:1048400008958091590A90915A0A891B990B0895ED
:10485000CF92DF92EF92FF920F931F93CF93DF934C
:104860007C01CB018A012091B008222389F0EB0161
:104870006B01C40ED51ECC15DD0569F06991D70119
:10488000ED91FC910190F081E02DC7011995F3CFD6
:10489000642F0E94DA21C801DF91CF911F910F91FF
:1048A000FF90EF90DF90CF900895CF93DF931F920A
:1048B000CDB7DEB769832091B0082223F9F02091AB
:1048C000570A203258F021E030E0FC013383228384
:1048D00090E080E00F90DF91CF9108958091580A89
:1048E000E82FF0E0EF54F74F998190838F5F80932A
:1048F000580A8093570A81E090E0ECCF61E0CE0146
:1049000001960E94DA21F7CF682F8BE59AE00C948C
:104910005524FC01248131E03093B0082093D10864
:104920001092580A1092570A8485862B90E00E94B4
:10493000842481E00C944022FC0120812EBD9B0147
:104940002150310941F051810DB407FEFDCF4EB524
:104950005EBD4193F5CF61507109860F971F0DB46D
:1049600007FEFDCF2EB5FC0120830895E091FB06E4
:10497000F091FC0680819091FA06892B808308953E
:10498000E091FB06F091FC0690818091FA068095FB
:104990008923808308958EBD00000DB407FEFDCFEE
:1049A0008EB50895AF92BF92CF92DF92EF92FF92B1
:1049B0000F931F93CF93DF9300D000D01F921F92CD
:1049C000CDB7DEB78C017B016A0180916308833328
:1049D000E1F45801A40EB51EA016B10609F46FC08B
:1049E0000E94C02480EF0E94CB24812F0E94CB2400
:1049F000802F0E94CB240F5F1F4FF70181917F0111
:104A00000E94CB240E94B624E7CF5B01A40EB51E02
:104A10008433C1F40E94C02419830A838D2D8068D9
:104A20008B83CC8264E070E0CE0101960E949C24CE
:104A3000AE14BF0409F441C0F70181917F010E94C7
:104A4000CB24F6CF0E94C0240F3F110509F028F4B3
:104A500019820A8384E08B830CC017FD17C019826A
:104A60000A8333E0169507953A95E1F7007E0C60CE
:104A70000B8386E0C816D104A0F5F701DE01149679
:104A8000EA15FB0599F081918D93FACFC80126E0D4
:104A9000969587952A95E1F7807E19830A830115FB
:104AA000104C10F48461D7CF8C61D5CFB6016D5F07
:104AB0007F4FCE0101960E949C240E94B624C6011D
:104AC00028960FB6F894DEBF0FBECDBFDF91CF9111
:104AD0001F910F91FF90EF90DF90CF90BF90AF901C
:104AE000089563E070E0CE0101960E949C24F701D6
:104AF00081917F010E94CB24AE14BF04C1F7DDCFAA
:104B0000CF93DF931F92CDB7DEB7898341E050E0AA
:104B1000BE016F5F7F4F90E080E00E94D2240F9033
:104B2000DF91CF91089590E020916308233339F409
:104B30000C96982F990F990F990F80E00895489639
:104B4000F8CFDA01E091FE06F0E0FE2FEE27E60F47
:104B5000F71F90E0982F8827A901BD018E0F9F1F96
:104B60000C94D224CF93DF931F921F92CDB7DEB760
:104B700079836A8322E030E0AE014F5F5F4F60E1EE
:104B800070E00E94A1250F900F90DF91CF910895C2
:104B9000CF93DF931F921F92CDB7DEB779836A83DD
:104BA00022E030E0AE014F5F5F4F64E070E00E94B2
:104BB000A1250F900F90DF91CF910895CF93DF93B0
:104BC0001F92CDB7DEB72091FE0630E0322F2227AC
:104BD000260F371F90E0982F8827498341E050E047
:104BE000BE016F5F7F4F820F931F0E94D2240F90F0
:104BF000DF91CF910895CF93DF931F92CDB7DEB7AA
:104C00006983DC01ED91FC910280F381E02D41E0AC
:104C100050E0BE016F5F7F4F19950F90DF91CF91EC
:104C200008950895FC019485FB018485981303C0C1
:104C300081E0983008F080E00895CF93DF931F92D1
:104C4000CDB7DEB76983DC01ED91FC910280F38181
:104C5000E02D41E050E0BE016F5F7F4F19950F904E
:104C6000DF91CF91089544E050E0BC018FE090E0E7
:104C70000C94D2240895FF920F931F93CF93DF9348
:104C8000EB01FC01178A168A2A81211109C02B81A8
:104C9000211106C02C81211103C02D81222301F195
:104CA00041155105E9F08A01FC01F08C80E591E0A5
:104CB0000E949D06AE014E5F5F4F24E030E06CE045
:104CC00070E08F2D0E94A125B8018F2D0E94B22582
:104CD00081E090E0DF91CF911F910F91FF900895B7
:104CE00080E0F7CFFC01848595850895FC018489D7
:104CF0009589089529EE32E0FC0131832083FB0180
:104D00004089518962897389FC014283538364839A
:104D100075830895DC01ED91FC91048CF58DE02DF7
:104D2000199490E080E008950F931F9380911C0BDD
:104D300084FD0E94480980911B0B86FF3AC081E0E8
:104D40008093060880911C0B84FD0E944809809185
:104D50001B0B82FF31C08091270B813069F5809158
:104D60001C0B806480931C0B81E0809305080E94DB
:104D70003C096093010870930208809303089093A4
:104D800004080E943C09009101081091020820913A
:104D9000030830910408601B710B820B930B603683
:104DA0007A4E8105910510F0109205081F910F9120
:104DB000089510920608C6CF80911C0B84FD0E94B6
:104DC000480980911C0B80FF02C08E7FCBCF84FDF1
:104DD0000E94480980911B0B85FFD3CF8F7D809364
:104DE0001B0BC2CF8F929F92AF92BF92CF92DF9256
:104DF000EF92FF926B017C010E9417094B015C014D
:104E0000C114D104E104F104E9F00E9494260E9447
:104E10001709681979098A099B09683E7340810559
:104E2000910570F321E0C21AD108E108F10888EE7B
:104E3000880E83E0981EA11CB11CC114D104E104AA
:104E4000F10429F7FF90EF90DF90CF90BF90AF90E3
:104E50009F908F900895DF92EF92FF920F931F9390
:104E6000CF93DF93CDB7DEB768970FB6F894DEBF68
:104E70000FBECDBF8C017B01F80164913196D490B7
:104E80000E5F1F4F6F3779F0DE01119630E020E0A2
:104E9000AD012D1530F5F801E20FF31FE491ED930C
:104EA0002F5F3F4FF6CF6D2D70E090E080E00E94C5
:104EB000F226D12C6D2D70E06E5F7F4FE61AF70A57
:104EC0001E141F04CCF268960FB6F894DEBF0FBE16
:104ED000CDBFDF91CF911F910F91FF90EF90DF90A9
:104EE00008950D0D111D70E02D2D8BEC9AE00E94A0
:104EF000E015E0CFE091F90AF091FA0A80819091F3
:104F0000010B892B8083E091FF0AF091000B8081D7
:104F10009091040B892B8083E091FD0AF091FE0AA9
:104F200080819091030B892B80838091090B8823CA
:104F300071F060E00E94900862E070E080E090E034
:104F40000E94F22661E08091090B0E949008E09196
:104F5000F90AF091FA0A80819091050B89238083E8
:104F6000E091FB0AF091FC0A80819091060B892365
:104F700080838091020187788093020180910201F1
:104F8000809302018EB1877C8EB98EB18EB9A598BF
:104F900084B384BBE091FD0AF091FE0A8081909178
:104FA000070B89238083E091FD0AF091FE0A80813E
:104FB0009091030B892B808383E0E091FD0AF091AF
:104FC000FE0A90812091070B92239083E091FD0AC5
:104FD000F091FE0A90812091030B922B90838150D7
:104FE00061F7E091F90AF091FA0A80819091010B42
:104FF000892B80830895FF920F931F93CF93DF93A4
:10500000D62FE091F90AF091FA0A20813091050B30
:1050100023232083E091FB0AF091FC0A2081309148
:10502000060B23232083209102012778209302017D
:1050300020910201209302012EB1277C2EB92EB1BE
:105040002EB9A59824B324BBE091FD0AF091FE0A85
:1050500020813091070B23232083E091FD0AF091FA
:10506000FE0A20813091030B232B20832091020123
:10507000277820930201609102019C0143E035955D
:1050800027954A95E1F72871AC0175E0440F551F4B
:105090007A95E1F74076242B262B209302012EB13E
:1050A000277C2EB94EB19C01220F331F220F331FD4
:1050B0002073242B2EB9A59824B3880F991F8072D2
:1050C000822B84BBE091FD0AF091FE0A80819091D1
:1050D000070B89238083E091FD0AF091FE0A80810D
:1050E0009091030B892B8083E091FB0AF091FC0ADD
:1050F00080819091020B892B8083809101018778B8
:10510000809301018DB1877C8DB99D9861E070E03D
:1051100080E090E00E94F226E091FF0AF091000BFF
:1051200080819091080B8923808300C000C000C05B
:105130000000F0900001809100015CB12CB1C2B37D
:10514000E091FF0AF091000B90813091040B932BBA
:105150009083E091FF0AF091000B90813091080B51
:105160009323908300C000C000C000004091000164
:10517000E0910001FCB19CB162B30091FF0A109173
:10518000000BD8013C917091040B372B3C93D1302C
:1051900009F467C00091F90A1091FA0AD8013C910C
:1051A0007091010B372B3C9330910101386730939C
:1051B00001013DB138633DB99D9A30E035952795A1
:1051C000359527952C703327D0E0D595C795C071BC
:1051D000DD272C2B34E0539FE0011124C072DD2722
:1051E0002C2BA8E08A9FE0011124C07CDD272C2B0A
:1051F000AF2DB0E0C5E0B595A795CA95E1F7A370CE
:105200002A2B50E0D5E055954795DA95E1F74370A4
:105210005527892F90E095958795959587958C7062
:10522000992770E07595679560717727862B972B86
:1052300034E0F39FB001112460727727862B972BFF
:1052400078E0E79FF0011124E07CFF278E2B9F2B55
:10525000842B952B922BDF91CF911F910F91FF9073
:105260000895D0E059CFCF92DF92EF92FF92CF9383
:10527000DF93EC0189859A850E94120B40E06CEC6B
:1052800089859A850E94BF0A488164E489859A8548
:105290000E94BF0A8C81882309F446C08D8188232F
:1052A000D9F08881811118C00E943C096B017C01F2
:1052B00089859A850E946C0A8130B1F10E943C096F
:1052C0006C197D098E099F096E3E7240810591051A
:1052D00058F50E949426ECCFEB81E9508EEE92E0D7
:1052E000E33038F4F0E0EE0FFF1FE359FD4F80810B
:1052F00091816C01F12CE12C8981882321F060E0FF
:105300008A810E949008C701B6010E94F226898115
:10531000882351F061E08A81DF91CF91FF90EF9077
:10532000DF90CF900C949008DF91CF91FF90EF9099
:10533000DF90CF900895FC01768765870895DC01A2
:10534000ED91FC91068CF78DE02D199591E0892760
:105350000895862F089581E08627089521E0FC01B5
:105360008485883008F020E0822F0895CF93DF9362
:10537000CBE1DBE062E08A810E94BE088A8190E096
:10538000FC01EA58F34FE491F0E0EE0FFF1FE45008
:10539000F44F259134913D8B2C8BFC01EA5EF34F49
:1053A000E491EE8BDF91CF910895BF92CF92DF927F
:1053B000EF92FF920F931F93CF93DF93EC01B62EE2
:1053C000C72E8D85811105C0CE010E94120B81115F
:1053D0000EC01B861D861C8680E0DF91CF911F9139
:1053E0000F91FF90EF90DF90CF90BF90089540E035
:1053F00060EFCE010E94BF0A01E0E12CD12C11E048
:10540000CE010E946C0AF82ECE010E946C0A91E037
:10541000F91218C0813099F51134D8F2DB86D11019
:1054200002C081E08D878B81882399F22396EB2D32
:10543000FC2DCF01089629912193E817F907D9F798
:1054400081E0CBCFEE2DF0E0F8120FC08B8518175E
:10545000A0F4DE01AE0FBF1F13968C91802379F468
:10546000F12C193008F41C87D12EEC0FFD1F83811D
:10547000902F9095892383830AC08113F1CFFE0179
:10548000EE0DF11D8381802B8383FF24F3946F2D18
:10549000CE010E94900A1F5F000F11F4E39401E017
:1054A00087E08E1508F0ACCFB7CF0F931F93CF9343
:1054B000DF93CDB7DEB761970FB6F894DEBF0FBEAE
:1054C000CDBF8C01DC011996ED91FC911A971386E2
:1054D000158614861286118610861782168215820A
:1054E00014821382BE01665F7F4F19968D919C9145
:1054F0000E94D52981110FC060E070E08EEF92EC20
:1055000061960FB6F894DEBF0FBECDBFDF91CF918D
:105510001F910F91089567E0CE010A960E94550AE7
:1055200099898913E9CFAE014F5F5F4FBE01665F76
:105530007F4FC8010E944A0B8823F1F26A8170E014
:10554000762F6627770F770F770F2981B8E02B9F8B
:1055500090011124262B372B8A858031E1F4688550
:105560006623C9F070E08F81FB01E81BF109CF01D0
:105570009695982F8827979587950E94216FCB0144
:105580008097B90153E0660F771F5A95E1F760786D
:105590009C01260F371F2138F4EE3F070CF4ACCFE7
:1055A000B901330F880B990B0E94756C20E030E035
:1055B00040E05CE30E94D46CA3CFEF92FF920F9384
:1055C0001F93CF93DF93CDB7DEB761970FB6F894F3
:1055D000DEBF0FBECDBF8C01DC011996ED91FC91B1
:1055E0001A971386158614861286118610861782DE
:1055F000168215821482138217961C92179718969A
:105600001C92FF24F394BE01665F7F4FF8018185F1
:1056100092850E94D529882309F472C067E0CE01E3
:105620000A960E94550A99898913EDCFD8011796D9
:105630008C9117978F5F17968C938A85883231F0FB
:1056400008F045C0803111F08232E9F6F80180851A
:105650008F5F80878081811124C0818592850E941F
:10566000120BBE01665F7F4FD80119968D919C91F8
:105670000E94F30A40E064EBF801818592850E9464
:10568000BF0AD80119968D919C910E946C0AE82E50
:10569000F801818592850E94120BE11002C0D801A9
:1056A000FC928A858031F1F0AE014F5F5F4FBE0101
:1056B000665F7F4FC8010E944A0B882331F08D81BD
:1056C0008F33D1F058F48F31C9F080E00EC08B33A6
:1056D00009F4BCCF823409F096CFB8CF8F3521F0D2
:1056E0008F3799F78CE001C08BE0F8019381981710
:1056F00008F089CF838387CF8AE0F7CF89E0F5CFA1
:1057000061960FB6F894DEBF0FBECDBFDF91CF918B
:105710001F910F91FF90EF900895BF92CF92DF926B
:10572000EF92FF920F931F93CF93DF9300D000D09F
:105730001F921F92CDB7DEB78091B10A91E090938E
:10574000B0088093D1081092580A1092570A90E03E
:1057500080E00E94842481E00E944022882301F19D
:1057600019821A821B821C821D821E8218861F8249
:1057700029813A814B815C816D817E818F81988501
:1057800028960FB6F894DEBF0FBECDBFDF91CF9144
:105790001F910F91FF90EF90DF90CF90BF900895F1
:1057A00067E08091B10A0E94302310925A0A8093D8
:1057B000590A8BE59AE00E940E249C0164E035951D
:1057C00027956A95E1F72F7033271AE08F70D82E4E
:1057D000129FD00C11248BE59AE00E940E249C01AC
:1057E00074E0359527957A95E1F72F7033278F7000
:1057F000E82E129FE00C11248BE59AE00E940E2403
:10580000182F1F7085FF46C01C5E8BE59AE00E9432
:105810000E24B82E8BE59AE00E940E249C0194E0A1
:10582000359527959A95E1F72F7033273AE0C32EE7
:105830008F70F82EC29EF00C11248BE59AE00E9426
:105840000E249C0144E0359527954A95E1F72F7089
:1058500033278F70082FC29E000D11248BE59AE02C
:105860000E940E24D982EA821B83BC82FD820E83B1
:105870009C0154E0359527955A95E1F72F70332711
:105880008F70C29E800D112490E08053984F9887AE
:105890008F836ECF84FFB9CF165FB7CF9091B10AD7
:1058A00021E02093B0089093D1081092580A1092EA
:1058B000570A682F8BE59AE00E94552481E00E94E8
:1058C000402281110EC061E08091B10A0E94302314
:1058D00010925A0A8093590A8BE59AE00E940E248E
:1058E000089580E008950F931F93CF938C01C62FE6
:1058F0000E9489246C2F6460C8010E9489246C2F47
:105900006B7FC8010E94892483EC90E00197F1F736
:10591000CF911F910F9108950F931F93CF93DF9312
:105920008C01D62FC42F607F642B0E94732C80E1E2
:10593000D89FB00111246C2BC801DF91CF911F912A
:105940000F910C94732CCF93DF9300D000D01F9253
:105950001F92CDB7DEB798E0E7E2F2E0DE011196E4
:1059600001900D929A95E1F79091120B961708F419
:105970006FEF262F30E0220F331F41E050E04C0F35
:105980005D1F240F351FF9016081680F606840E0DA
:105990008AE09BE028960FB6F894DEBF0FBECDBF1D
:1059A000DF91CF910C948C2C40E061E08AE09BE089
:1059B0000E948C2C8BE39FE10197F1F78091130BF0
:1059C000882321F060E080E00C94A32C089541E04E
:1059D0000E948C2C81E090E008952F923F924F928C
:1059E0005F926F927F928F929F92AF92BF92CF926F
:1059F000DF92EF92FF920F931F93CF93DF93CDB778
:105A0000DEB72D970FB6F894DEBF0FBECDBFFC01F9
:105A1000208181817093CE0A6093CD0A5093D00A81
:105A20004093CF0A2B838C83EB81FC819191FC8383
:105A3000EB83892F992309F4D9C09A30A9F4809176
:105A4000D70AF8E08F9FC00111242091CF0A30912E
:105A5000D00A820F931F9093D00A8093CF0A10929E
:105A6000CE0A1092CD0AE0CF9D30F1F22091CD0AFE
:105A70003091CE0A398728872091DD0A3091DE0ADD
:105A800048855985421753070CF088C06090CF0AAB
:105A90007090D00A2091DF0A3091E00A62167306F6
:105AA0000CF07CC05091D70A5A83C52ED12C288582
:105AB0003985E6E05E9F200D311D11241216130674
:105AC0000CF06CC0960193E0220F331F9A95E1F71A
:105AD000260D371D121613060CF060C0803B08F02F
